{
  "_format": "hh3-artifact-1",
  "contractName": "TreasuryVault",
  "sourceName": "contracts/TreasuryVault.sol",
  "abi": [
    {
      "inputs": [
        {
          "internalType": "address",
          "name": "_usdc",
          "type": "address"
        },
        {
          "internalType": "address",
          "name": "_eurc",
          "type": "address"
        },
        {
          "internalType": "address",
          "name": "_usyc",
          "type": "address"
        },
        {
          "internalType": "address",
          "name": "_entitlements",
          "type": "address"
        },
        {
          "internalType": "address",
          "name": "_usycOracle",
          "type": "address"
        },
        {
          "internalType": "address",
          "name": "_treasuryOperator",
          "type": "address"
        },
        {
          "internalType": "uint256",
          "name": "_platformFeeBps",
          "type": "uint256"
        }
      ],
      "stateMutability": "nonpayable",
      "type": "constructor"
    },
    {
      "inputs": [],
      "name": "EnforcedPause",
      "type": "error"
    },
    {
      "inputs": [],
      "name": "ExpectedPause",
      "type": "error"
    },
    {
      "inputs": [
        {
          "internalType": "address",
          "name": "owner",
          "type": "address"
        }
      ],
      "name": "OwnableInvalidOwner",
      "type": "error"
    },
    {
      "inputs": [
        {
          "internalType": "address",
          "name": "account",
          "type": "address"
        }
      ],
      "name": "OwnableUnauthorizedAccount",
      "type": "error"
    },
    {
      "inputs": [],
      "name": "ReentrancyGuardReentrantCall",
      "type": "error"
    },
    {
      "inputs": [
        {
          "internalType": "address",
          "name": "token",
          "type": "address"
        }
      ],
      "name": "SafeERC20FailedOperation",
      "type": "error"
    },
    {
      "anonymous": false,
      "inputs": [
        {
          "indexed": false,
          "internalType": "uint256",
          "name": "usdcAmount",
          "type": "uint256"
        },
        {
          "indexed": false,
          "internalType": "uint256",
          "name": "usycAmount",
          "type": "uint256"
        }
      ],
      "name": "ConvertedToUSYC",
      "type": "event"
    },
    {
      "anonymous": false,
      "inputs": [
        {
          "indexed": true,
          "internalType": "address",
          "name": "user",
          "type": "address"
        },
        {
          "indexed": false,
          "internalType": "uint256",
          "name": "amount",
          "type": "uint256"
        },
        {
          "indexed": false,
          "internalType": "uint256",
          "name": "shares",
          "type": "uint256"
        }
      ],
      "name": "Deposit",
      "type": "event"
    },
    {
      "anonymous": false,
      "inputs": [
        {
          "indexed": true,
          "internalType": "address",
          "name": "user",
          "type": "address"
        },
        {
          "indexed": false,
          "internalType": "uint256",
          "name": "amount",
          "type": "uint256"
        },
        {
          "indexed": false,
          "internalType": "uint256",
          "name": "shares",
          "type": "uint256"
        }
      ],
      "name": "DepositEURC",
      "type": "event"
    },
    {
      "anonymous": false,
      "inputs": [
        {
          "indexed": true,
          "internalType": "address",
          "name": "user",
          "type": "address"
        },
        {
          "indexed": true,
          "internalType": "uint256",
          "name": "lockId",
          "type": "uint256"
        },
        {
          "indexed": false,
          "internalType": "uint256",
          "name": "amount",
          "type": "uint256"
        },
        {
          "indexed": false,
          "internalType": "address",
          "name": "token",
          "type": "address"
        },
        {
          "indexed": false,
          "internalType": "uint8",
          "name": "lockPeriodMonths",
          "type": "uint8"
        },
        {
          "indexed": false,
          "internalType": "uint256",
          "name": "unlockTime",
          "type": "uint256"
        }
      ],
      "name": "DepositLocked",
      "type": "event"
    },
    {
      "anonymous": false,
      "inputs": [
        {
          "indexed": true,
          "internalType": "address",
          "name": "user",
          "type": "address"
        },
        {
          "indexed": true,
          "internalType": "uint256",
          "name": "lockId",
          "type": "uint256"
        },
        {
          "indexed": false,
          "internalType": "uint256",
          "name": "penaltyAmount",
          "type": "uint256"
        }
      ],
      "name": "EarlyWithdrawPenalty",
      "type": "event"
    },
    {
      "anonymous": false,
      "inputs": [
        {
          "indexed": true,
          "internalType": "address",
          "name": "token",
          "type": "address"
        },
        {
          "indexed": true,
          "internalType": "address",
          "name": "to",
          "type": "address"
        },
        {
          "indexed": false,
          "internalType": "uint256",
          "name": "amount",
          "type": "uint256"
        }
      ],
      "name": "EmergencyWithdraw",
      "type": "event"
    },
    {
      "anonymous": false,
      "inputs": [
        {
          "indexed": false,
          "internalType": "uint256",
          "name": "oldFee",
          "type": "uint256"
        },
        {
          "indexed": false,
          "internalType": "uint256",
          "name": "newFee",
          "type": "uint256"
        }
      ],
      "name": "FeeUpdated",
      "type": "event"
    },
    {
      "anonymous": false,
      "inputs": [
        {
          "indexed": true,
          "internalType": "address",
          "name": "user",
          "type": "address"
        },
        {
          "indexed": true,
          "internalType": "uint256",
          "name": "lockId",
          "type": "uint256"
        },
        {
          "indexed": false,
          "internalType": "uint256",
          "name": "amount",
          "type": "uint256"
        },
        {
          "indexed": false,
          "internalType": "uint256",
          "name": "yield",
          "type": "uint256"
        }
      ],
      "name": "LockedPositionWithdrawn",
      "type": "event"
    },
    {
      "anonymous": false,
      "inputs": [
        {
          "indexed": true,
          "internalType": "address",
          "name": "oldOperator",
          "type": "address"
        },
        {
          "indexed": true,
          "internalType": "address",
          "name": "newOperator",
          "type": "address"
        }
      ],
      "name": "OperatorUpdated",
      "type": "event"
    },
    {
      "anonymous": false,
      "inputs": [
        {
          "indexed": true,
          "internalType": "address",
          "name": "previousOwner",
          "type": "address"
        },
        {
          "indexed": true,
          "internalType": "address",
          "name": "newOwner",
          "type": "address"
        }
      ],
      "name": "OwnershipTransferred",
      "type": "event"
    },
    {
      "anonymous": false,
      "inputs": [
        {
          "indexed": false,
          "internalType": "address",
          "name": "account",
          "type": "address"
        }
      ],
      "name": "Paused",
      "type": "event"
    },
    {
      "anonymous": false,
      "inputs": [
        {
          "indexed": false,
          "internalType": "uint256",
          "name": "feeShares",
          "type": "uint256"
        }
      ],
      "name": "PlatformFeeAccrued",
      "type": "event"
    },
    {
      "anonymous": false,
      "inputs": [
        {
          "indexed": true,
          "internalType": "address",
          "name": "user",
          "type": "address"
        },
        {
          "indexed": false,
          "internalType": "uint256",
          "name": "newPoints",
          "type": "uint256"
        }
      ],
      "name": "PointsUpdated",
      "type": "event"
    },
    {
      "anonymous": false,
      "inputs": [
        {
          "indexed": true,
          "internalType": "address",
          "name": "operator",
          "type": "address"
        },
        {
          "indexed": false,
          "internalType": "uint256",
          "name": "usycAmount",
          "type": "uint256"
        },
        {
          "indexed": false,
          "internalType": "uint256",
          "name": "totalUSYC",
          "type": "uint256"
        }
      ],
      "name": "USYCConversionRecorded",
      "type": "event"
    },
    {
      "anonymous": false,
      "inputs": [
        {
          "indexed": false,
          "internalType": "address",
          "name": "account",
          "type": "address"
        }
      ],
      "name": "Unpaused",
      "type": "event"
    },
    {
      "anonymous": false,
      "inputs": [
        {
          "indexed": true,
          "internalType": "address",
          "name": "user",
          "type": "address"
        },
        {
          "indexed": false,
          "internalType": "uint256",
          "name": "shares",
          "type": "uint256"
        },
        {
          "indexed": false,
          "internalType": "uint256",
          "name": "amount",
          "type": "uint256"
        }
      ],
      "name": "Withdraw",
      "type": "event"
    },
    {
      "anonymous": false,
      "inputs": [
        {
          "indexed": true,
          "internalType": "address",
          "name": "user",
          "type": "address"
        },
        {
          "indexed": false,
          "internalType": "uint256",
          "name": "shares",
          "type": "uint256"
        },
        {
          "indexed": false,
          "internalType": "uint256",
          "name": "amount",
          "type": "uint256"
        }
      ],
      "name": "WithdrawEURC",
      "type": "event"
    },
    {
      "anonymous": false,
      "inputs": [
        {
          "indexed": true,
          "internalType": "address",
          "name": "user",
          "type": "address"
        },
        {
          "indexed": true,
          "internalType": "uint256",
          "name": "lockId",
          "type": "uint256"
        },
        {
          "indexed": false,
          "internalType": "uint256",
          "name": "yieldAmount",
          "type": "uint256"
        }
      ],
      "name": "YieldClaimed",
      "type": "event"
    },
    {
      "inputs": [],
      "name": "EARLY_WITHDRAW_PENALTY_BPS",
      "outputs": [
        {
          "internalType": "uint256",
          "name": "",
          "type": "uint256"
        }
      ],
      "stateMutability": "view",
      "type": "function"
    },
    {
      "inputs": [],
      "name": "LOCK_BOOST_12_MONTH",
      "outputs": [
        {
          "internalType": "uint256",
          "name": "",
          "type": "uint256"
        }
      ],
      "stateMutability": "view",
      "type": "function"
    },
    {
      "inputs": [],
      "name": "LOCK_BOOST_1_MONTH",
      "outputs": [
        {
          "internalType": "uint256",
          "name": "",
          "type": "uint256"
        }
      ],
      "stateMutability": "view",
      "type": "function"
    },
    {
      "inputs": [],
      "name": "LOCK_BOOST_3_MONTH",
      "outputs": [
        {
          "internalType": "uint256",
          "name": "",
          "type": "uint256"
        }
      ],
      "stateMutability": "view",
      "type": "function"
    },
    {
      "inputs": [],
      "name": "LOCK_MINIMUM_DEPOSIT",
      "outputs": [
        {
          "internalType": "uint256",
          "name": "",
          "type": "uint256"
        }
      ],
      "stateMutability": "view",
      "type": "function"
    },
    {
      "inputs": [],
      "name": "LOCK_PERIOD_12_MONTH",
      "outputs": [
        {
          "internalType": "uint256",
          "name": "",
          "type": "uint256"
        }
      ],
      "stateMutability": "view",
      "type": "function"
    },
    {
      "inputs": [],
      "name": "LOCK_PERIOD_1_MONTH",
      "outputs": [
        {
          "internalType": "uint256",
          "name": "",
          "type": "uint256"
        }
      ],
      "stateMutability": "view",
      "type": "function"
    },
    {
      "inputs": [],
      "name": "LOCK_PERIOD_3_MONTH",
      "outputs": [
        {
          "internalType": "uint256",
          "name": "",
          "type": "uint256"
        }
      ],
      "stateMutability": "view",
      "type": "function"
    },
    {
      "inputs": [],
      "name": "LOCK_POINTS_MULTIPLIER_12_MONTH",
      "outputs": [
        {
          "internalType": "uint256",
          "name": "",
          "type": "uint256"
        }
      ],
      "stateMutability": "view",
      "type": "function"
    },
    {
      "inputs": [],
      "name": "LOCK_POINTS_MULTIPLIER_1_MONTH",
      "outputs": [
        {
          "internalType": "uint256",
          "name": "",
          "type": "uint256"
        }
      ],
      "stateMutability": "view",
      "type": "function"
    },
    {
      "inputs": [],
      "name": "LOCK_POINTS_MULTIPLIER_3_MONTH",
      "outputs": [
        {
          "internalType": "uint256",
          "name": "",
          "type": "uint256"
        }
      ],
      "stateMutability": "view",
      "type": "function"
    },
    {
      "inputs": [],
      "name": "LOCK_POINTS_MULTIPLIER_FLEXIBLE",
      "outputs": [
        {
          "internalType": "uint256",
          "name": "",
          "type": "uint256"
        }
      ],
      "stateMutability": "view",
      "type": "function"
    },
    {
      "inputs": [],
      "name": "MAX_PLATFORM_FEE_BPS",
      "outputs": [
        {
          "internalType": "uint256",
          "name": "",
          "type": "uint256"
        }
      ],
      "stateMutability": "view",
      "type": "function"
    },
    {
      "inputs": [],
      "name": "USYC_MINIMUM",
      "outputs": [
        {
          "internalType": "uint256",
          "name": "",
          "type": "uint256"
        }
      ],
      "stateMutability": "view",
      "type": "function"
    },
    {
      "inputs": [],
      "name": "accrue",
      "outputs": [],
      "stateMutability": "nonpayable",
      "type": "function"
    },
    {
      "inputs": [
        {
          "internalType": "uint256",
          "name": "positionIndex",
          "type": "uint256"
        }
      ],
      "name": "claimLockedYield",
      "outputs": [
        {
          "internalType": "uint256",
          "name": "",
          "type": "uint256"
        }
      ],
      "stateMutability": "nonpayable",
      "type": "function"
    },
    {
      "inputs": [
        {
          "internalType": "uint256",
          "name": "amount",
          "type": "uint256"
        }
      ],
      "name": "deposit",
      "outputs": [
        {
          "internalType": "uint256",
          "name": "",
          "type": "uint256"
        }
      ],
      "stateMutability": "payable",
      "type": "function"
    },
    {
      "inputs": [
        {
          "internalType": "uint256",
          "name": "amount",
          "type": "uint256"
        }
      ],
      "name": "depositEURC",
      "outputs": [
        {
          "internalType": "uint256",
          "name": "",
          "type": "uint256"
        }
      ],
      "stateMutability": "nonpayable",
      "type": "function"
    },
    {
      "inputs": [
        {
          "internalType": "uint256",
          "name": "amount",
          "type": "uint256"
        },
        {
          "internalType": "uint8",
          "name": "lockPeriodMonths",
          "type": "uint8"
        }
      ],
      "name": "depositLockedEURC",
      "outputs": [
        {
          "internalType": "uint256",
          "name": "",
          "type": "uint256"
        }
      ],
      "stateMutability": "nonpayable",
      "type": "function"
    },
    {
      "inputs": [
        {
          "internalType": "uint256",
          "name": "amount",
          "type": "uint256"
        },
        {
          "internalType": "uint8",
          "name": "lockPeriodMonths",
          "type": "uint8"
        }
      ],
      "name": "depositLockedUSDC",
      "outputs": [
        {
          "internalType": "uint256",
          "name": "",
          "type": "uint256"
        }
      ],
      "stateMutability": "payable",
      "type": "function"
    },
    {
      "inputs": [
        {
          "internalType": "uint256",
          "name": "positionIndex",
          "type": "uint256"
        }
      ],
      "name": "earlyWithdrawLocked",
      "outputs": [
        {
          "internalType": "uint256",
          "name": "",
          "type": "uint256"
        }
      ],
      "stateMutability": "nonpayable",
      "type": "function"
    },
    {
      "inputs": [
        {
          "internalType": "address",
          "name": "token",
          "type": "address"
        },
        {
          "internalType": "address",
          "name": "to",
          "type": "address"
        },
        {
          "internalType": "uint256",
          "name": "amount",
          "type": "uint256"
        }
      ],
      "name": "emergencyWithdraw",
      "outputs": [],
      "stateMutability": "nonpayable",
      "type": "function"
    },
    {
      "inputs": [],
      "name": "entitlements",
      "outputs": [
        {
          "internalType": "contract IEntitlements",
          "name": "",
          "type": "address"
        }
      ],
      "stateMutability": "view",
      "type": "function"
    },
    {
      "inputs": [],
      "name": "eurc",
      "outputs": [
        {
          "internalType": "contract IERC20",
          "name": "",
          "type": "address"
        }
      ],
      "stateMutability": "view",
      "type": "function"
    },
    {
      "inputs": [],
      "name": "getEURCPricePerShare",
      "outputs": [
        {
          "internalType": "uint256",
          "name": "",
          "type": "uint256"
        }
      ],
      "stateMutability": "view",
      "type": "function"
    },
    {
      "inputs": [
        {
          "internalType": "address",
          "name": "user",
          "type": "address"
        },
        {
          "internalType": "uint256",
          "name": "positionIndex",
          "type": "uint256"
        }
      ],
      "name": "getLockedPositionYield",
      "outputs": [
        {
          "internalType": "uint256",
          "name": "",
          "type": "uint256"
        }
      ],
      "stateMutability": "view",
      "type": "function"
    },
    {
      "inputs": [],
      "name": "getPricePerShare",
      "outputs": [
        {
          "internalType": "uint256",
          "name": "",
          "type": "uint256"
        }
      ],
      "stateMutability": "view",
      "type": "function"
    },
    {
      "inputs": [],
      "name": "getTotalPoolValue",
      "outputs": [
        {
          "internalType": "uint256",
          "name": "",
          "type": "uint256"
        }
      ],
      "stateMutability": "view",
      "type": "function"
    },
    {
      "inputs": [
        {
          "internalType": "address",
          "name": "user",
          "type": "address"
        },
        {
          "internalType": "uint256",
          "name": "positionIndex",
          "type": "uint256"
        }
      ],
      "name": "getUserLockedPosition",
      "outputs": [
        {
          "components": [
            {
              "internalType": "uint256",
              "name": "id",
              "type": "uint256"
            },
            {
              "internalType": "uint256",
              "name": "amount",
              "type": "uint256"
            },
            {
              "internalType": "address",
              "name": "token",
              "type": "address"
            },
            {
              "internalType": "uint8",
              "name": "lockPeriodMonths",
              "type": "uint8"
            },
            {
              "internalType": "uint256",
              "name": "depositTime",
              "type": "uint256"
            },
            {
              "internalType": "uint256",
              "name": "unlockTime",
              "type": "uint256"
            },
            {
              "internalType": "uint256",
              "name": "lastYieldClaim",
              "type": "uint256"
            },
            {
              "internalType": "bool",
              "name": "withdrawn",
              "type": "bool"
            }
          ],
          "internalType": "struct TreasuryVault.LockedPosition",
          "name": "",
          "type": "tuple"
        }
      ],
      "stateMutability": "view",
      "type": "function"
    },
    {
      "inputs": [
        {
          "internalType": "address",
          "name": "user",
          "type": "address"
        }
      ],
      "name": "getUserLockedPositions",
      "outputs": [
        {
          "components": [
            {
              "internalType": "uint256",
              "name": "id",
              "type": "uint256"
            },
            {
              "internalType": "uint256",
              "name": "amount",
              "type": "uint256"
            },
            {
              "internalType": "address",
              "name": "token",
              "type": "address"
            },
            {
              "internalType": "uint8",
              "name": "lockPeriodMonths",
              "type": "uint8"
            },
            {
              "internalType": "uint256",
              "name": "depositTime",
              "type": "uint256"
            },
            {
              "internalType": "uint256",
              "name": "unlockTime",
              "type": "uint256"
            },
            {
              "internalType": "uint256",
              "name": "lastYieldClaim",
              "type": "uint256"
            },
            {
              "internalType": "bool",
              "name": "withdrawn",
              "type": "bool"
            }
          ],
          "internalType": "struct TreasuryVault.LockedPosition[]",
          "name": "",
          "type": "tuple[]"
        }
      ],
      "stateMutability": "view",
      "type": "function"
    },
    {
      "inputs": [
        {
          "internalType": "address",
          "name": "user",
          "type": "address"
        }
      ],
      "name": "getUserLockedPositionsCount",
      "outputs": [
        {
          "internalType": "uint256",
          "name": "",
          "type": "uint256"
        }
      ],
      "stateMutability": "view",
      "type": "function"
    },
    {
      "inputs": [
        {
          "internalType": "address",
          "name": "user",
          "type": "address"
        }
      ],
      "name": "getUserOverview",
      "outputs": [
        {
          "internalType": "uint256",
          "name": "usdcShares",
          "type": "uint256"
        },
        {
          "internalType": "uint256",
          "name": "usdcValue",
          "type": "uint256"
        },
        {
          "internalType": "uint256",
          "name": "eurcShares",
          "type": "uint256"
        },
        {
          "internalType": "uint256",
          "name": "eurcValue",
          "type": "uint256"
        },
        {
          "internalType": "uint256",
          "name": "points",
          "type": "uint256"
        },
        {
          "internalType": "bool",
          "name": "hasNFT",
          "type": "bool"
        }
      ],
      "stateMutability": "view",
      "type": "function"
    },
    {
      "inputs": [
        {
          "internalType": "address",
          "name": "user",
          "type": "address"
        }
      ],
      "name": "getUserPoints",
      "outputs": [
        {
          "internalType": "uint256",
          "name": "",
          "type": "uint256"
        }
      ],
      "stateMutability": "view",
      "type": "function"
    },
    {
      "inputs": [
        {
          "internalType": "address",
          "name": "user",
          "type": "address"
        }
      ],
      "name": "getUserShareValue",
      "outputs": [
        {
          "internalType": "uint256",
          "name": "",
          "type": "uint256"
        }
      ],
      "stateMutability": "view",
      "type": "function"
    },
    {
      "inputs": [],
      "name": "isNativeUSDC",
      "outputs": [
        {
          "internalType": "bool",
          "name": "",
          "type": "bool"
        }
      ],
      "stateMutability": "view",
      "type": "function"
    },
    {
      "inputs": [],
      "name": "lastRecordedValue",
      "outputs": [
        {
          "internalType": "uint256",
          "name": "",
          "type": "uint256"
        }
      ],
      "stateMutability": "view",
      "type": "function"
    },
    {
      "inputs": [],
      "name": "nextLockId",
      "outputs": [
        {
          "internalType": "uint256",
          "name": "",
          "type": "uint256"
        }
      ],
      "stateMutability": "view",
      "type": "function"
    },
    {
      "inputs": [],
      "name": "nftMultiplierEnabled",
      "outputs": [
        {
          "internalType": "bool",
          "name": "",
          "type": "bool"
        }
      ],
      "stateMutability": "view",
      "type": "function"
    },
    {
      "inputs": [],
      "name": "owner",
      "outputs": [
        {
          "internalType": "address",
          "name": "",
          "type": "address"
        }
      ],
      "stateMutability": "view",
      "type": "function"
    },
    {
      "inputs": [],
      "name": "pause",
      "outputs": [],
      "stateMutability": "nonpayable",
      "type": "function"
    },
    {
      "inputs": [],
      "name": "paused",
      "outputs": [
        {
          "internalType": "bool",
          "name": "",
          "type": "bool"
        }
      ],
      "stateMutability": "view",
      "type": "function"
    },
    {
      "inputs": [],
      "name": "platformFeeBps",
      "outputs": [
        {
          "internalType": "uint256",
          "name": "",
          "type": "uint256"
        }
      ],
      "stateMutability": "view",
      "type": "function"
    },
    {
      "inputs": [],
      "name": "pointsMultiplierNFT",
      "outputs": [
        {
          "internalType": "contract IERC721",
          "name": "",
          "type": "address"
        }
      ],
      "stateMutability": "view",
      "type": "function"
    },
    {
      "inputs": [
        {
          "internalType": "uint256",
          "name": "usycAmount",
          "type": "uint256"
        }
      ],
      "name": "recordUSYCConversion",
      "outputs": [],
      "stateMutability": "nonpayable",
      "type": "function"
    },
    {
      "inputs": [],
      "name": "refreshUserPoints",
      "outputs": [],
      "stateMutability": "nonpayable",
      "type": "function"
    },
    {
      "inputs": [],
      "name": "renounceOwnership",
      "outputs": [],
      "stateMutability": "nonpayable",
      "type": "function"
    },
    {
      "inputs": [
        {
          "internalType": "bool",
          "name": "enabled",
          "type": "bool"
        }
      ],
      "name": "setNFTMultiplierEnabled",
      "outputs": [],
      "stateMutability": "nonpayable",
      "type": "function"
    },
    {
      "inputs": [
        {
          "internalType": "uint256",
          "name": "newFeeBps",
          "type": "uint256"
        }
      ],
      "name": "setPlatformFee",
      "outputs": [],
      "stateMutability": "nonpayable",
      "type": "function"
    },
    {
      "inputs": [
        {
          "internalType": "address",
          "name": "nftAddress",
          "type": "address"
        }
      ],
      "name": "setPointsMultiplierNFT",
      "outputs": [],
      "stateMutability": "nonpayable",
      "type": "function"
    },
    {
      "inputs": [
        {
          "internalType": "address",
          "name": "newOperator",
          "type": "address"
        }
      ],
      "name": "setTreasuryOperator",
      "outputs": [],
      "stateMutability": "nonpayable",
      "type": "function"
    },
    {
      "inputs": [],
      "name": "totalEURC",
      "outputs": [
        {
          "internalType": "uint256",
          "name": "",
          "type": "uint256"
        }
      ],
      "stateMutability": "view",
      "type": "function"
    },
    {
      "inputs": [],
      "name": "totalEURCShares",
      "outputs": [
        {
          "internalType": "uint256",
          "name": "",
          "type": "uint256"
        }
      ],
      "stateMutability": "view",
      "type": "function"
    },
    {
      "inputs": [],
      "name": "totalLockedEURC",
      "outputs": [
        {
          "internalType": "uint256",
          "name": "",
          "type": "uint256"
        }
      ],
      "stateMutability": "view",
      "type": "function"
    },
    {
      "inputs": [],
      "name": "totalLockedUSDC",
      "outputs": [
        {
          "internalType": "uint256",
          "name": "",
          "type": "uint256"
        }
      ],
      "stateMutability": "view",
      "type": "function"
    },
    {
      "inputs": [],
      "name": "totalShares",
      "outputs": [
        {
          "internalType": "uint256",
          "name": "",
          "type": "uint256"
        }
      ],
      "stateMutability": "view",
      "type": "function"
    },
    {
      "inputs": [],
      "name": "totalUSDC",
      "outputs": [
        {
          "internalType": "uint256",
          "name": "",
          "type": "uint256"
        }
      ],
      "stateMutability": "view",
      "type": "function"
    },
    {
      "inputs": [],
      "name": "totalUSYC",
      "outputs": [
        {
          "internalType": "uint256",
          "name": "",
          "type": "uint256"
        }
      ],
      "stateMutability": "view",
      "type": "function"
    },
    {
      "inputs": [
        {
          "internalType": "address",
          "name": "newOwner",
          "type": "address"
        }
      ],
      "name": "transferOwnership",
      "outputs": [],
      "stateMutability": "nonpayable",
      "type": "function"
    },
    {
      "inputs": [],
      "name": "treasuryOperator",
      "outputs": [
        {
          "internalType": "address",
          "name": "",
          "type": "address"
        }
      ],
      "stateMutability": "view",
      "type": "function"
    },
    {
      "inputs": [],
      "name": "unpause",
      "outputs": [],
      "stateMutability": "nonpayable",
      "type": "function"
    },
    {
      "inputs": [],
      "name": "usdc",
      "outputs": [
        {
          "internalType": "contract IERC20",
          "name": "",
          "type": "address"
        }
      ],
      "stateMutability": "view",
      "type": "function"
    },
    {
      "inputs": [
        {
          "internalType": "address",
          "name": "",
          "type": "address"
        }
      ],
      "name": "userEURCShares",
      "outputs": [
        {
          "internalType": "uint256",
          "name": "",
          "type": "uint256"
        }
      ],
      "stateMutability": "view",
      "type": "function"
    },
    {
      "inputs": [
        {
          "internalType": "address",
          "name": "",
          "type": "address"
        }
      ],
      "name": "userInfo",
      "outputs": [
        {
          "internalType": "uint256",
          "name": "firstDepositTime",
          "type": "uint256"
        },
        {
          "internalType": "uint256",
          "name": "lastBalanceUpdate",
          "type": "uint256"
        },
        {
          "internalType": "uint256",
          "name": "balanceAtLastUpdate",
          "type": "uint256"
        },
        {
          "internalType": "uint256",
          "name": "accumulatedPoints",
          "type": "uint256"
        },
        {
          "internalType": "uint256",
          "name": "currentPoints",
          "type": "uint256"
        }
      ],
      "stateMutability": "view",
      "type": "function"
    },
    {
      "inputs": [
        {
          "internalType": "address",
          "name": "",
          "type": "address"
        },
        {
          "internalType": "uint256",
          "name": "",
          "type": "uint256"
        }
      ],
      "name": "userLockedPositions",
      "outputs": [
        {
          "internalType": "uint256",
          "name": "id",
          "type": "uint256"
        },
        {
          "internalType": "uint256",
          "name": "amount",
          "type": "uint256"
        },
        {
          "internalType": "address",
          "name": "token",
          "type": "address"
        },
        {
          "internalType": "uint8",
          "name": "lockPeriodMonths",
          "type": "uint8"
        },
        {
          "internalType": "uint256",
          "name": "depositTime",
          "type": "uint256"
        },
        {
          "internalType": "uint256",
          "name": "unlockTime",
          "type": "uint256"
        },
        {
          "internalType": "uint256",
          "name": "lastYieldClaim",
          "type": "uint256"
        },
        {
          "internalType": "bool",
          "name": "withdrawn",
          "type": "bool"
        }
      ],
      "stateMutability": "view",
      "type": "function"
    },
    {
      "inputs": [
        {
          "internalType": "address",
          "name": "",
          "type": "address"
        }
      ],
      "name": "userShares",
      "outputs": [
        {
          "internalType": "uint256",
          "name": "",
          "type": "uint256"
        }
      ],
      "stateMutability": "view",
      "type": "function"
    },
    {
      "inputs": [],
      "name": "usyc",
      "outputs": [
        {
          "internalType": "contract IUSYC",
          "name": "",
          "type": "address"
        }
      ],
      "stateMutability": "view",
      "type": "function"
    },
    {
      "inputs": [],
      "name": "usycOracle",
      "outputs": [
        {
          "internalType": "contract IUSYCOracle",
          "name": "",
          "type": "address"
        }
      ],
      "stateMutability": "view",
      "type": "function"
    },
    {
      "inputs": [
        {
          "internalType": "uint256",
          "name": "sharesToWithdraw",
          "type": "uint256"
        }
      ],
      "name": "withdraw",
      "outputs": [
        {
          "internalType": "uint256",
          "name": "",
          "type": "uint256"
        }
      ],
      "stateMutability": "nonpayable",
      "type": "function"
    },
    {
      "inputs": [
        {
          "internalType": "uint256",
          "name": "sharesToWithdraw",
          "type": "uint256"
        }
      ],
      "name": "withdrawEURC",
      "outputs": [
        {
          "internalType": "uint256",
          "name": "",
          "type": "uint256"
        }
      ],
      "stateMutability": "nonpayable",
      "type": "function"
    },
    {
      "inputs": [
        {
          "internalType": "uint256",
          "name": "positionIndex",
          "type": "uint256"
        }
      ],
      "name": "withdrawLocked",
      "outputs": [
        {
          "internalType": "uint256",
          "name": "",
          "type": "uint256"
        }
      ],
      "stateMutability": "nonpayable",
      "type": "function"
    }
  ],
  "bytecode": "0x6101406040526001600755600c805460ff60a01b1916905534801562000023575f80fd5b506040516200539f3803806200539f83398101604081905262000046916200038b565b33806200006d57604051631e4fbdf760e01b81525f60048201526024015b60405180910390fd5b620000788162000320565b50600180556001600160a01b038716620000d55760405162461bcd60e51b815260206004820152601460248201527f496e76616c696420555344432061646472657373000000000000000000000000604482015260640162000064565b6001600160a01b0386166200012d5760405162461bcd60e51b815260206004820152601460248201527f496e76616c696420455552432061646472657373000000000000000000000000604482015260640162000064565b6001600160a01b038516620001855760405162461bcd60e51b815260206004820152601460248201527f496e76616c696420555359432061646472657373000000000000000000000000604482015260640162000064565b6001600160a01b038416620001dd5760405162461bcd60e51b815260206004820152601c60248201527f496e76616c696420456e7469746c656d656e7473206164647265737300000000604482015260640162000064565b6001600160a01b038316620002355760405162461bcd60e51b815260206004820152601660248201527f496e76616c6964204f7261636c65206164647265737300000000000000000000604482015260640162000064565b6001600160a01b0382166200028d5760405162461bcd60e51b815260206004820152601860248201527f496e76616c6964206f70657261746f7220616464726573730000000000000000604482015260640162000064565b60c8811115620002cf5760405162461bcd60e51b815260206004820152600c60248201526b08ccaca40e8dede40d0d2ced60a31b604482015260640162000064565b6001600160a01b039687166080819052601b60991b1460a05294861660c05292851660e05290841661010052831661012052600b80546001600160a01b031916919093161790915560115562000412565b5f80546001600160a01b038381166001600160a01b0319831681178455604051919092169283917f8be0079c531659141344cd1fd0a4f28419497f9722a3daafe3b4186f6b6457e09190a35050565b80516001600160a01b038116811462000386575f80fd5b919050565b5f805f805f805f60e0888a031215620003a2575f80fd5b620003ad886200036f565b9650620003bd602089016200036f565b9550620003cd604089016200036f565b9450620003dd606089016200036f565b9350620003ed608089016200036f565b9250620003fd60a089016200036f565b915060c0880151905092959891949750929550565b60805160a05160c05160e0516101005161012051614e116200058e5f395f8181610a8601528181612cd4015261470601525f61040a01525f610b3301525f818161049c01528181610ef001528181610f8b0152818161109301528181611981015281816119da01528181611a76015281816129210152818161297d01528181612a1d01528181612a5301528181612b5c0152818161312301528181613162015281816131fe01528181613de50152613eb101525f8181610aeb015281816113a6015281816117b0015281816121c2015281816123fa0152818161267b01528181612d7f01528181612f860152818161377301528181613863015261391f01525f81816106c40152818161149c0152818161156801528181611786015281816118aa015281816119460152818161228701528181612322015281816124670152818161263701528181612810015281816128b0015281816128e601528181612f5c0152818161304c015281816130e801526138380152614e115ff3fe6080604052600436106103f5575f3560e01c806381f1f3761161020a578063b6b55f251161011e578063de69b3aa116100a8578063eecc5dd711610078578063eecc5dd714610c3e578063f2fde38b14610c52578063f8ba4cff14610c71578063f95eebc114610c85578063fb810a1b14610ca4575f80fd5b8063de69b3aa14610bcb578063e63ea40814610bf6578063e6eea44b14610c15578063ebd6e69814610c29575f80fd5b8063c1d1941b116100ee578063c1d1941b14610b55578063ce42a3cb14610b81578063d2d5420014610b95578063d32468fe146109aa578063d8de4d0114610bac575f80fd5b8063b6b55f2514610ac7578063bb0d530514610ada578063bfd7029314610b0d578063c166beb614610b22575f80fd5b80638da5cb5b1161019f578063a3dc8e1c1161016f578063a3dc8e1c14610a2c578063a4efb8ad14610a4b578063a89ced6114610a61578063ae56566614610a75578063aeefe31f14610aa8575f80fd5b80638da5cb5b146109be5780638f8daca1146109da5780639820fa58146109f9578063a14ed18a14610a18575f80fd5b8063851cb984116101da578063851cb98414610963578063896df472146109785780638b166bb4146109975780638d01513c146109aa575f80fd5b806381f1f376146109055780638271f4ba14610919578063831fc390146109395780638456cb591461094f575f80fd5b80633db9ee451161030c5780634c72b3ed116102965780636518a0b3116102665780636518a0b31461089c578063657a8cc1146108b1578063688c0396146108c65780637094033e146108dc578063715018a6146108f1575f80fd5b80634c72b3ed146107f7578063552eec2f1461080c5780635ae0258b1461085a5780635c975abb14610879575f80fd5b806340b9de5e116102dc57806340b9de5e146107195780634146e9f7146107385780634335cf91146107575780634a165cd9146107765780634b549f3e1461078b575f80fd5b80633db9ee45146106885780633e413bee146106b35780633ef4adb6146106e65780633f4ba83a14610705575f80fd5b806321f1e5641161038d5780632e1a7d4d1161035d5780632e1a7d4d1461060257806332d342b71461062157806333c51e73146106405780633a98ef391461065f5780633d68175c14610674575f80fd5b806321f1e564146105a557806322c0c9a6146105c457806322dcd13e146105d85780632822e1e3146105ed575f80fd5b806312e8e2c3116103c857806312e8e2c3146104ea5780631959a0021461050b5780631dec15151461057b5780632133a41c14610590575f80fd5b806304504467146103f957806306eee7591461044957806308d781ec1461048b5780630ac5ae8c146104be575b5f80fd5b348015610404575f80fd5b5061042c7f000000000000000000000000000000000000000000000000000000000000000081565b6040516001600160a01b0390911681526020015b60405180910390f35b348015610454575f80fd5b5061047d610463366004614a8b565b6001600160a01b03165f9081526008602052604090205490565b604051908152602001610440565b348015610496575f80fd5b5061042c7f000000000000000000000000000000000000000000000000000000000000000081565b3480156104c9575f80fd5b506104dd6104d8366004614a8b565b610cbc565b6040516104409190614b06565b3480156104f5575f80fd5b50610509610504366004614b54565b610d91565b005b348015610516575f80fd5b50610553610525366004614a8b565b60066020525f9081526040902080546001820154600283015460038401546004909401549293919290919085565b604080519586526020860194909452928401919091526060830152608082015260a001610440565b348015610586575f80fd5b5061047d600d5481565b34801561059b575f80fd5b5061047d60095481565b3480156105b0575f80fd5b5061047d6105bf366004614b6b565b610e23565b3480156105cf575f80fd5b50610509611119565b3480156105e3575f80fd5b5061047d60115481565b3480156105f8575f80fd5b5061047d61010981565b34801561060d575f80fd5b5061047d61061c366004614b54565b61117a565b34801561062c575f80fd5b5061047d61063b366004614b54565b6115dc565b34801561064b575f80fd5b5061050961065a366004614a8b565b611afd565b34801561066a575f80fd5b5061047d600f5481565b34801561067f575f80fd5b5061047d611b9e565b348015610693575f80fd5b5061047d6106a2366004614a8b565b60056020525f908152604090205481565b3480156106be575f80fd5b5061042c7f000000000000000000000000000000000000000000000000000000000000000081565b3480156106f1575f80fd5b50600c5461042c906001600160a01b031681565b348015610710575f80fd5b50610509611bf6565b348015610724575f80fd5b50610509610733366004614b54565b611c06565b348015610743575f80fd5b50610509610752366004614bab565b611cec565b348015610762575f80fd5b50600b5461042c906001600160a01b031681565b348015610781575f80fd5b5061047d60125481565b348015610796575f80fd5b506107aa6107a5366004614bc6565b611d6c565b6040805198895260208901979097526001600160a01b039095169587019590955260ff9092166060860152608085015260a084015260c0830191909152151560e082015261010001610440565b348015610802575f80fd5b5061047d600e5481565b348015610817575f80fd5b5061082b610826366004614a8b565b611ddc565b6040805196875260208701959095529385019290925260608401526080830152151560a082015260c001610440565b348015610865575f80fd5b5061047d610874366004614a8b565b611f1e565b348015610884575f80fd5b5060025460ff165b6040519015158152602001610440565b3480156108a7575f80fd5b5061047d60075481565b3480156108bc575f80fd5b5061047d61012c81565b3480156108d1575f80fd5b5061047d6276a70081565b3480156108e7575f80fd5b5061047d60045481565b3480156108fc575f80fd5b50610509611fad565b348015610910575f80fd5b5061047d609681565b348015610924575f80fd5b50600c5461088c90600160a01b900460ff1681565b348015610944575f80fd5b5061047d6298968081565b34801561095a575f80fd5b50610509611fbe565b34801561096e575f80fd5b5061047d600a5481565b348015610983575f80fd5b50610509610992366004614a8b565b611fce565b61047d6109a5366004614b6b565b612100565b3480156109b5575f80fd5b5061047d60c881565b3480156109c9575f80fd5b505f546001600160a01b031661042c565b3480156109e5575f80fd5b5061047d6109f4366004614b54565b6124d4565b348015610a04575f80fd5b5061047d610a13366004614b54565b612afa565b348015610a23575f80fd5b5061047d612cca565b348015610a37575f80fd5b5061047d610a46366004614b54565b612dd1565b348015610a56575f80fd5b5061047d62278d0081565b348015610a6c575f80fd5b5061047d608781565b348015610a80575f80fd5b5061042c7f000000000000000000000000000000000000000000000000000000000000000081565b348015610ab3575f80fd5b5061047d610ac2366004614a8b565b613268565b61047d610ad5366004614b54565b61371c565b348015610ae5575f80fd5b5061088c7f000000000000000000000000000000000000000000000000000000000000000081565b348015610b18575f80fd5b5061047d60035481565b348015610b2d575f80fd5b5061042c7f000000000000000000000000000000000000000000000000000000000000000081565b348015610b60575f80fd5b50610b74610b6f366004614bc6565b6139f5565b6040516104409190614bee565b348015610b8c575f80fd5b5061047d613b55565b348015610ba0575f80fd5b5061047d6301e1338081565b348015610bb7575f80fd5b5061047d610bc6366004614b54565b613ba4565b348015610bd6575f80fd5b5061047d610be5366004614a8b565b60106020525f908152604090205481565b348015610c01575f80fd5b50610509610c10366004614bfd565b613f10565b348015610c20575f80fd5b5061047d606481565b348015610c34575f80fd5b5061047d6109c481565b348015610c49575f80fd5b5061047d604181565b348015610c5d575f80fd5b50610509610c6c366004614a8b565b614155565b348015610c7c575f80fd5b50610509614192565b348015610c90575f80fd5b5061047d610c9f366004614bc6565b61429f565b348015610caf575f80fd5b5061047d64174876e80081565b6001600160a01b0381165f908152600860209081526040808320805482518185028101850190935280835260609492939192909184015b82821015610d86575f848152602090819020604080516101008101825260078602909201805483526001808201548486015260028201546001600160a01b03811693850193909352600160a01b90920460ff908116606085015260038201546080850152600482015460a0850152600582015460c085015260069091015416151560e08301529083529092019101610cf3565b505050509050919050565b610d99614402565b60c8811115610dde5760405162461bcd60e51b815260206004820152600c60248201526b08ccaca40e8dede40d0d2ced60a31b60448201526064015b60405180910390fd5b601180549082905560408051828152602081018490527f528d9479e9f9889a87a3c30c7f7ba537e5e59c4c85a37733b16e57c62df61302910160405180910390a15050565b5f610e2c61442e565b610e34614452565b62989680831015610e7e5760405162461bcd60e51b8152602060048201526014602482015273416d6f756e742062656c6f77206d696e696d756d60601b6044820152606401610dd5565b8160ff1660011480610e9357508160ff166003145b80610ea157508160ff16600c145b610ee35760405162461bcd60e51b8152602060048201526013602482015272125b9d985b1a59081b1bd8dac81c195c9a5bd9606a1b6044820152606401610dd5565b610f186001600160a01b037f00000000000000000000000000000000000000000000000000000000000000001633308661447c565b5f8260ff16600103610f2e575062278d00610f4a565b8260ff16600303610f4357506276a700610f4a565b506301e133805b600780545f9182610f5a83614c4a565b9091555090505f610f6b8342614c62565b604080516101008101825284815260208082018a81526001600160a01b037f0000000000000000000000000000000000000000000000000000000000000000811684860190815260ff808d1660608701908152426080880181815260a089018b815260c08a019283525f60e08b0181815233825260088b529b81208054600181810183559183529a82208c516007909c02019a8b559851988a019890985594516002890180549451909516600160a01b026001600160a81b0319909416961695909517919091179091559151600385015551600484015551600583015592516006909101805491151560ff19909216919091179055600a80549394509092899290611077908490614c62565b9091555061108a9050335f8960016144e9565b604080518881527f00000000000000000000000000000000000000000000000000000000000000006001600160a01b0316602082015260ff88169181019190915260608101839052839033907ff58390f3a5ef0076f5530010b8fdc45c3fb5c766d1dbba7e43c64a83decd897e906080015b60405180910390a350909250505061111360018055565b92915050565b335f9081526006602052604090205461116b5760405162461bcd60e51b81526020600482015260146024820152735573657220686173206e6f206465706f7369747360601b6044820152606401610dd5565b611178335f8060016144e9565b565b5f61118361442e565b61118b614452565b5f82116111cf5760405162461bcd60e51b81526020600482015260126024820152710536861726573206d757374206265203e20360741b6044820152606401610dd5565b335f908152601060205260409020548211156112235760405162461bcd60e51b8152602060048201526013602482015272496e73756666696369656e742073686172657360681b6044820152606401610dd5565b5f600f54116112685760405162461bcd60e51b8152602060048201526011602482015270139bc81cda185c995cc81a5b881c1bdbdb607a1b6044820152606401610dd5565b600f545f9061127f670de0b6b3a764000085614c75565b6112899190614c8c565b90505f670de0b6b3a764000082600d546112a39190614c75565b6112ad9190614c8c565b90505f81116112f45760405162461bcd60e51b81526020600482015260136024820152724e6f205553444320746f20776974686472617760681b6044820152606401610dd5565b600d548111156113465760405162461bcd60e51b815260206004820152601b60248201527f496e73756666696369656e742055534443206c697175696469747900000000006044820152606401610dd5565b80600d5f8282546113579190614cab565b9250508190555083600f5f82825461136f9190614cab565b9091555050335f9081526010602052604081208054869290611392908490614cab565b909155506113a4905033825f806144e9565b7f000000000000000000000000000000000000000000000000000000000000000015611485578047101561141a5760405162461bcd60e51b815260206004820152601d60248201527f496e73756666696369656e7420636f6e74726163742062616c616e63650000006044820152606401610dd5565b6040515f90339083908381818185875af1925050503d805f8114611459576040519150601f19603f3d011682016040523d82523d5f602084013e61145e565b606091505b505090508061147f5760405162461bcd60e51b8152600401610dd590614cbe565b5061158f565b6040516370a0823160e01b815230600482015281907f00000000000000000000000000000000000000000000000000000000000000006001600160a01b0316906370a0823190602401602060405180830381865afa1580156114e9573d5f803e3d5ffd5b505050506040513d601f19601f8201168201806040525081019061150d9190614ce7565b101561155b5760405162461bcd60e51b815260206004820152601960248201527f496e73756666696369656e7420555344432062616c616e6365000000000000006044820152606401610dd5565b61158f6001600160a01b037f00000000000000000000000000000000000000000000000000000000000000001633836146cc565b604080518581526020810183905233917ff279e6a1f5e320cca91135676d9cb6e44ca8a08c0b88342bcdb1144f6511b56891015b60405180910390a29150506115d760018055565b919050565b5f6115e561442e565b6115ed614452565b335f90815260086020526040902054821061161a5760405162461bcd60e51b8152600401610dd590614cfe565b335f90815260086020526040812080548490811061163a5761163a614d28565b5f9182526020909120600790910201600681015490915060ff16156116955760405162461bcd60e51b815260206004820152601160248201527020b63932b0b23c903bb4ba34323930bbb760791b6044820152606401610dd5565b80600401544210156116d85760405162461bcd60e51b815260206004820152600c60248201526b14dd1a5b1b081b1bd8dad95960a21b6044820152606401610dd5565b6040805161010081018252825481526001830154602082015260028301546001600160a01b03811692820192909252600160a01b90910460ff908116606083015260038301546080830152600483015460a0830152600583015460c0830152600683015416151560e08201525f9061174f906146fd565b60068301805460ff191660019081179091558301549091505f90611774908390614c62565b60028401549091506001600160a01b037f00000000000000000000000000000000000000000000000000000000000000008116911603611972577f00000000000000000000000000000000000000000000000000000000000000001561187957826001015460095f8282546117e99190614cab565b90915550504781111561180e5760405162461bcd60e51b8152600401610dd590614d3c565b6040515f90339083908381818185875af1925050503d805f811461184d576040519150601f19603f3d011682016040523d82523d5f602084013e611852565b606091505b50509050806118735760405162461bcd60e51b8152600401610dd590614cbe565b50611a9d565b826001015460095f82825461188e9190614cab565b90915550506040516370a0823160e01b815230600482015281907f00000000000000000000000000000000000000000000000000000000000000006001600160a01b0316906370a0823190602401602060405180830381865afa1580156118f7573d5f803e3d5ffd5b505050506040513d601f19601f8201168201806040525081019061191b9190614ce7565b10156119395760405162461bcd60e51b8152600401610dd590614d6a565b61196d6001600160a01b037f00000000000000000000000000000000000000000000000000000000000000001633836146cc565b611a9d565b60028301546001600160a01b037f00000000000000000000000000000000000000000000000000000000000000008116911603611a9d578260010154600a5f8282546119be9190614cab565b90915550506040516370a0823160e01b815230600482015281907f00000000000000000000000000000000000000000000000000000000000000006001600160a01b0316906370a0823190602401602060405180830381865afa158015611a27573d5f803e3d5ffd5b505050506040513d601f19601f82011682018060405250810190611a4b9190614ce7565b1015611a695760405162461bcd60e51b8152600401610dd590614d95565b611a9d6001600160a01b037f00000000000000000000000000000000000000000000000000000000000000001633836146cc565b611aad3384600101545f806144e9565b82546001840154604080519182526020820185905233917f4280378bb73daad12252f3bc220fcbebe5493b67c91897fb03120b8a54d2ee7791015b60405180910390a3925050506115d760018055565b611b05614402565b6001600160a01b038116611b4d5760405162461bcd60e51b815260206004820152600f60248201526e496e76616c6964206164647265737360881b6044820152606401610dd5565b600b80546001600160a01b038381166001600160a01b0319831681179093556040519116919082907ffbe5b6cbafb274f445d7fed869dc77a838d8243a22c460de156560e8857cad03905f90a35050565b5f600f545f03611bb55750670de0b6b3a764000090565b5f611bbe612cca565b600f54909150670de0b6b3a7640000611bdc8364e8d4a51000614c75565b611be69190614c75565b611bf09190614c8c565b91505090565b611bfe614402565b61117861482c565b600b546001600160a01b03163314611c4f5760405162461bcd60e51b815260206004820152600c60248201526b2737ba1037b832b930ba37b960a11b6044820152606401610dd5565b5f8111611c8f5760405162461bcd60e51b815260206004820152600e60248201526d125b9d985b1a5908185b5bdd5b9d60921b6044820152606401610dd5565b80600e5f828254611ca09190614c62565b9091555050600e5460405133917f730f2846a6663ca64155e71ede6430ba615b57d6e5f6fd93456e813ed8fb0c0291611ce191858252602082015260400190565b60405180910390a250565b611cf4614402565b600c546001600160a01b0316151580611d0b575080155b611d4e5760405162461bcd60e51b81526020600482015260146024820152731391950818dbdb9d1c9858dd081b9bdd081cd95d60621b6044820152606401610dd5565b600c8054911515600160a01b0260ff60a01b19909216919091179055565b6008602052815f5260405f208181548110611d85575f80fd5b5f91825260209091206007909102018054600182015460028301546003840154600485015460058601546006909601549497509295506001600160a01b0382169460ff600160a01b90930483169491939290911688565b6001600160a01b0381165f908152601060205260408120549080808080611e0287611f1e565b6001600160a01b0388165f9081526005602052604090205490955093508315801590611e2f57505f600454115b15611e77575f611e3d613b55565b90505f670de0b6b3a7640000611e538388614c75565b611e5d9190614c8c565b9050611e6e64e8d4a5100082614c8c565b94505050611e7b565b5f92505b611e8487613268565b600c549092506001600160a01b031615611f1257600c546040516370a0823160e01b81526001600160a01b038981166004830152909116906370a0823190602401602060405180830381865afa925050508015611efe575060408051601f3d908101601f19168201909252611efb91810190614ce7565b60015b611f0957505f611f15565b15159050611f15565b505f5b91939550919395565b5f600f545f1480611f4457506001600160a01b0382165f90815260106020526040902054155b15611f5057505f919050565b5f611f59611b9e565b6001600160a01b0384165f9081526010602052604081205491925090670de0b6b3a764000090611f8a908490614c75565b611f949190614c8c565b9050611fa564e8d4a5100082614c8c565b949350505050565b611fb5614402565b6111785f61487e565b611fc6614402565b6111786148cd565b611fd6614402565b6001600160a01b038116156120de576040516301ffc9a760e01b81526380ac58cd60e01b60048201526001600160a01b038216906301ffc9a790602401602060405180830381865afa92505050801561204c575060408051601f3d908101601f1916820190925261204991810190614dc0565b60015b61208f5760405162461bcd60e51b8152602060048201526014602482015273125b9d985b1a59081391950818dbdb9d1c9858dd60621b6044820152606401610dd5565b806120dc5760405162461bcd60e51b815260206004820152601b60248201527f4e6f7420612076616c69642045524337323120636f6e747261637400000000006044820152606401610dd5565b505b600c80546001600160a01b0319166001600160a01b0392909216919091179055565b5f61210961442e565b612111614452565b6298968083101561215b5760405162461bcd60e51b8152602060048201526014602482015273416d6f756e742062656c6f77206d696e696d756d60601b6044820152606401610dd5565b8160ff166001148061217057508160ff166003145b8061217e57508160ff16600c145b6121c05760405162461bcd60e51b8152602060048201526013602482015272125b9d985b1a59081b1bd8dac81c195c9a5bd9606a1b6044820152606401610dd5565b7f00000000000000000000000000000000000000000000000000000000000000001561222c578234146122275760405162461bcd60e51b815260206004820152600f60248201526e082dadeeadce840dad2e6dac2e8c6d608b1b6044820152606401610dd5565b6122af565b341561227a5760405162461bcd60e51b815260206004820152601c60248201527f4e61746976652063757272656e6379206e6f74206163636570746564000000006044820152606401610dd5565b6122af6001600160a01b037f00000000000000000000000000000000000000000000000000000000000000001633308661447c565b5f8260ff166001036122c5575062278d006122e1565b8260ff166003036122da57506276a7006122e1565b506301e133805b600780545f91826122f183614c4a565b9091555090505f6123028342614c62565b604080516101008101825284815260208082018a81526001600160a01b037f0000000000000000000000000000000000000000000000000000000000000000811684860190815260ff808d1660608701908152426080880181815260a089018b815260c08a019283525f60e08b0181815233825260088b529b81208054600181810183559183529a9091208b516007909b0201998a5597519789019790975593516002880180549351909416600160a01b026001600160a81b03199093169516949094171790555160038401559051600483015551600582015591516006909201805492151560ff19909316929092179091559091507f00000000000000000000000000000000000000000000000000000000000000001561243a578660095f82825461242f9190614c62565b909155506124519050565b8660095f82825461244b9190614c62565b90915550505b61245e33885f60016144e9565b604080518881527f00000000000000000000000000000000000000000000000000000000000000006001600160a01b0316602082015260ff88169181019190915260608101839052839033907ff58390f3a5ef0076f5530010b8fdc45c3fb5c766d1dbba7e43c64a83decd897e906080016110fc565b5f6124dd61442e565b6124e5614452565b335f9081526008602052604090205482106125125760405162461bcd60e51b8152600401610dd590614cfe565b335f90815260086020526040812080548490811061253257612532614d28565b5f9182526020909120600790910201600681015490915060ff161561258d5760405162461bcd60e51b815260206004820152601160248201527020b63932b0b23c903bb4ba34323930bbb760791b6044820152606401610dd5565b806004015442106125e05760405162461bcd60e51b815260206004820152601a60248201527f5573652077697468647261774c6f636b656420696e73746561640000000000006044820152606401610dd5565b60068101805460ff191660019081179091558101545f9061271090612608906109c490614c75565b6126129190614c8c565b90505f8183600101546126259190614cab565b60028401549091506001600160a01b037f0000000000000000000000000000000000000000000000000000000000000000811691160361291257826001015460095f8282546126749190614cab565b90915550507f0000000000000000000000000000000000000000000000000000000000000000156127f65782600101544710156126c35760405162461bcd60e51b8152600401610dd590614d3c565b600b546040515f916001600160a01b03169084908381818185875af1925050503d805f811461270d576040519150601f19603f3d011682016040523d82523d5f602084013e612712565b606091505b50509050806127635760405162461bcd60e51b815260206004820152601760248201527f50656e616c7479207472616e73666572206661696c65640000000000000000006044820152606401610dd5565b6040515f90339084908381818185875af1925050503d805f81146127a2576040519150601f19603f3d011682016040523d82523d5f602084013e6127a7565b606091505b50509050806127ef5760405162461bcd60e51b8152602060048201526014602482015273155cd95c881d1c985b9cd9995c8819985a5b195960621b6044820152606401610dd5565b5050612a7a565b60018301546040516370a0823160e01b81523060048201527f00000000000000000000000000000000000000000000000000000000000000006001600160a01b0316906370a0823190602401602060405180830381865afa15801561285d573d5f803e3d5ffd5b505050506040513d601f19601f820116820180604052508101906128819190614ce7565b101561289f5760405162461bcd60e51b8152600401610dd590614d6a565b600b546128d9906001600160a01b037f000000000000000000000000000000000000000000000000000000000000000081169116846146cc565b61290d6001600160a01b037f00000000000000000000000000000000000000000000000000000000000000001633836146cc565b612a7a565b60028301546001600160a01b037f00000000000000000000000000000000000000000000000000000000000000008116911603612a7a578260010154600a5f82825461295e9190614cab565b909155505060018301546040516370a0823160e01b81523060048201527f00000000000000000000000000000000000000000000000000000000000000006001600160a01b0316906370a0823190602401602060405180830381865afa1580156129ca573d5f803e3d5ffd5b505050506040513d601f19601f820116820180604052508101906129ee9190614ce7565b1015612a0c5760405162461bcd60e51b8152600401610dd590614d95565b600b54612a46906001600160a01b037f000000000000000000000000000000000000000000000000000000000000000081169116846146cc565b612a7a6001600160a01b037f00000000000000000000000000000000000000000000000000000000000000001633836146cc565b612a8a3384600101545f806144e9565b825460405183815233907f84d24bc2eee194c09c5b44197d9c64101dca6178c60ee7544cd3b7016360be879060200160405180910390a38254604080518381525f602082015233917f4280378bb73daad12252f3bc220fcbebe5493b67c91897fb03120b8a54d2ee779101611ae8565b5f612b0361442e565b612b0b614452565b5f8211612b4f5760405162461bcd60e51b81526020600482015260126024820152710416d6f756e74206d757374206265203e20360741b6044820152606401610dd5565b612b846001600160a01b037f00000000000000000000000000000000000000000000000000000000000000001633308561447c565b5f6004545f03612ba457612b9d8364e8d4a51000614c75565b9050612c25565b5f612bad613b55565b90505f612bbf8564e8d4a51000614c75565b905081612bd4670de0b6b3a764000083614c75565b612bde9190614c8c565b92505f8311612c225760405162461bcd60e51b815260206004820152601060248201526f14da185c995cc81d1bdbc81cdb585b1b60821b6044820152606401610dd5565b50505b8260035f828254612c369190614c62565b925050819055508060045f828254612c4e9190614c62565b9091555050335f9081526005602052604081208054839290612c71908490614c62565b90915550612c849050335f8560016144e9565b604080518481526020810183905233917fab977339687e992921fbb4ae20e6000137f6af7a4d68de3a43345192f72b83b8910160405180910390a290506115d760018055565b5f80620f424090507f00000000000000000000000000000000000000000000000000000000000000006001600160a01b031663f17cf9956040518163ffffffff1660e01b8152600401602060405180830381865afa925050508015612d4c575060408051601f3d908101601f19168201909252612d4991810190614ce7565b60015b15612d5d578015612d5b578091505b505b5f620f4240600e5483612d709190614c75565b612d7a9190614c8c565b90505f7f0000000000000000000000000000000000000000000000000000000000000000612daa57600d54612dbd565b64e8d4a51000600d54612dbd9190614c8c565b9050612dc98183614c62565b935050505090565b5f612dda61442e565b612de2614452565b335f908152600860205260409020548210612e0f5760405162461bcd60e51b8152600401610dd590614cfe565b335f908152600860205260408120805484908110612e2f57612e2f614d28565b5f9182526020909120600790910201600681015490915060ff1615612e8b5760405162461bcd60e51b81526020600482015260126024820152712837b9b4ba34b7b7103bb4ba34323930bbb760711b6044820152606401610dd5565b6040805161010081018252825481526001830154602082015260028301546001600160a01b03811692820192909252600160a01b90910460ff908116606083015260038301546080830152600483015460a0830152600583015460c0830152600683015416151560e08201525f90612f02906146fd565b90505f8111612f475760405162461bcd60e51b81526020600482015260116024820152704e6f207969656c6420746f20636c61696d60781b6044820152606401610dd5565b42600583015560028201546001600160a01b037f00000000000000000000000000000000000000000000000000000000000000008116911603613114577f0000000000000000000000000000000000000000000000000000000000000000156130355780471015612fca5760405162461bcd60e51b8152600401610dd590614d3c565b6040515f90339083908381818185875af1925050503d805f8114613009576040519150601f19603f3d011682016040523d82523d5f602084013e61300e565b606091505b505090508061302f5760405162461bcd60e51b8152600401610dd590614cbe565b50613225565b6040516370a0823160e01b815230600482015281907f00000000000000000000000000000000000000000000000000000000000000006001600160a01b0316906370a0823190602401602060405180830381865afa158015613099573d5f803e3d5ffd5b505050506040513d601f19601f820116820180604052508101906130bd9190614ce7565b10156130db5760405162461bcd60e51b8152600401610dd590614d6a565b61310f6001600160a01b037f00000000000000000000000000000000000000000000000000000000000000001633836146cc565b613225565b60028201546001600160a01b037f00000000000000000000000000000000000000000000000000000000000000008116911603613225576040516370a0823160e01b815230600482015281907f00000000000000000000000000000000000000000000000000000000000000006001600160a01b0316906370a0823190602401602060405180830381865afa1580156131af573d5f803e3d5ffd5b505050506040513d601f19601f820116820180604052508101906131d39190614ce7565b10156131f15760405162461bcd60e51b8152600401610dd590614d95565b6132256001600160a01b037f00000000000000000000000000000000000000000000000000000000000000001633836146cc565b815460405182815233907f10d8dedfc0745b8c25ba10b06e304138b251c18dcaadf2d71c7f3214719dc4d19060200160405180910390a39150506115d760018055565b6001600160a01b0381165f908152600660209081526040808320815160a081018352815480825260018301549482019490945260028201549281019290925260038101546060830152600401546080820152901580156132dd57506001600160a01b0383165f90815260086020526040902054155b156132ea57505f92915050565b5f6132f48461490a565b90505f808360200151111561332857620151808360200151426133179190614cab565b6133219190614c8c565b905061334d565b82511561334d57825162015180906133409042614cab565b61334a9190614c8c565b90505b5f612710600161335d8585614c75565b6133679190614c75565b6133719190614c8c565b90505f612710613382600186614c75565b61338c9190614c8c565b90505f606480838589606001516133a39190614c62565b6133ad9190614c62565b6133b79190614c75565b6133c19190614c8c565b6001600160a01b0389165f9081526008602090815260408083208054825181850281018501909352808352949550929384939192849084015b8282101561348d575f848152602090819020604080516101008101825260078602909201805483526001808201548486015260028201546001600160a01b03811693850193909352600160a01b90920460ff908116606085015260038201546080850152600482015460a0850152600582015460c085015260069091015416151560e083015290835290920191016133fa565b5050505090505f5b8151811015613649578181815181106134b0576134b0614d28565b602002602001015160e00151613641575f620151808383815181106134d7576134d7614d28565b602002602001015160800151426134ee9190614cab565b6134f89190614c8c565b90505f6064905083838151811061351157613511614d28565b60200260200101516060015160ff1660010361352f5750609661358c565b83838151811061354157613541614d28565b60200260200101516060015160ff1660030361355f575060c861358c565b83838151811061357157613571614d28565b60200260200101516060015160ff16600c0361358c575061012c5b5f61271060018686815181106135a4576135a4614d28565b602002602001015160200151856135bb9190614c75565b6135c59190614c75565b6135cf9190614c8c565b90505f61271060018787815181106135e9576135e9614d28565b6020026020010151602001516135ff9190614c75565b6136099190614c8c565b90505f6064846136198486614c62565b6136239190614c75565b61362d9190614c8c565b90506136398189614c62565b975050505050505b600101613495565b505f6136558385614c62565b600c54909150600160a01b900460ff16801561367b5750600c546001600160a01b031615155b1561370e57600c546040516370a0823160e01b81526001600160a01b038d81166004830152909116906370a0823190602401602060405180830381865afa9250505080156136e6575060408051601f3d908101601f191682019092526136e391810190614ce7565b60015b1561370e57801561370c576136fc826002614c75565b9c9b505050505050505050505050565b505b9a9950505050505050505050565b5f61372561442e565b61372d614452565b5f82116137715760405162461bcd60e51b81526020600482015260126024820152710416d6f756e74206d757374206265203e20360741b6044820152606401610dd5565b7f0000000000000000000000000000000000000000000000000000000000000000156137dd578134146137d85760405162461bcd60e51b815260206004820152600f60248201526e082dadeeadce840dad2e6dac2e8c6d608b1b6044820152606401610dd5565b613860565b341561382b5760405162461bcd60e51b815260206004820152601c60248201527f4e61746976652063757272656e6379206e6f74206163636570746564000000006044820152606401610dd5565b6138606001600160a01b037f00000000000000000000000000000000000000000000000000000000000000001633308561447c565b5f7f000000000000000000000000000000000000000000000000000000000000000061389a576138958364e8d4a51000614c75565b61389c565b825b90505f600f545f036138af57508061391d565b5f6138b8611b9e565b9050806138cd670de0b6b3a764000085614c75565b6138d79190614c8c565b91505f821161391b5760405162461bcd60e51b815260206004820152601060248201526f14da185c995cc81d1bdbc81cdb585b1b60821b6044820152606401610dd5565b505b7f00000000000000000000000000000000000000000000000000000000000000001561395f5783600d5f8282546139549190614c62565b909155506139769050565b83600d5f8282546139709190614c62565b90915550505b80600f5f8282546139879190614c62565b9091555050335f90815260106020526040812080548392906139aa908490614c62565b909155506139bd905033855f60016144e9565b604080518581526020810183905233917f90890809c654f11d6e72a28fa60149770a0d11ec6c92319d6ceb2bb0a4ea1a1591016115c3565b613a436040518061010001604052805f81526020015f81526020015f6001600160a01b031681526020015f60ff1681526020015f81526020015f81526020015f81526020015f151581525090565b6001600160a01b0383165f908152600860205260409020548210613aa25760405162461bcd60e51b8152602060048201526016602482015275092dcecc2d8d2c840e0dee6d2e8d2dedc40d2dcc8caf60531b6044820152606401610dd5565b6001600160a01b0383165f908152600860205260409020805483908110613acb57613acb614d28565b5f918252602091829020604080516101008101825260079093029091018054835260018101549383019390935260028301546001600160a01b0381169183019190915260ff600160a01b9091048116606083015260038301546080830152600483015460a0830152600583015460c0830152600690920154909116151560e0820152905092915050565b5f6004545f03613b6c5750670de0b6b3a764000090565b600454670de0b6b3a764000060035464e8d4a51000613b8b9190614c75565b613b959190614c75565b613b9f9190614c8c565b905090565b5f613bad61442e565b613bb5614452565b5f8211613bf95760405162461bcd60e51b81526020600482015260126024820152710536861726573206d757374206265203e20360741b6044820152606401610dd5565b335f90815260056020526040902054821115613c4d5760405162461bcd60e51b8152602060048201526013602482015272496e73756666696369656e742073686172657360681b6044820152606401610dd5565b5f60045411613c925760405162461bcd60e51b8152602060048201526011602482015270139bc81cda185c995cc81a5b881c1bdbdb607a1b6044820152606401610dd5565b6004545f90613ca9670de0b6b3a764000085614c75565b613cb39190614c8c565b90505f670de0b6b3a764000082600354613ccd9190614c75565b613cd79190614c8c565b90505f8111613d1e5760405162461bcd60e51b81526020600482015260136024820152724e6f204555524320746f20776974686472617760681b6044820152606401610dd5565b600354811115613d705760405162461bcd60e51b815260206004820152601b60248201527f496e73756666696369656e742045555243206c697175696469747900000000006044820152606401610dd5565b8060035f828254613d819190614cab565b925050819055508360045f828254613d999190614cab565b9091555050335f9081526005602052604081208054869290613dbc908490614cab565b90915550613dce9050335f83816144e9565b6040516370a0823160e01b815230600482015281907f00000000000000000000000000000000000000000000000000000000000000006001600160a01b0316906370a0823190602401602060405180830381865afa158015613e32573d5f803e3d5ffd5b505050506040513d601f19601f82011682018060405250810190613e569190614ce7565b1015613ea45760405162461bcd60e51b815260206004820152601960248201527f496e73756666696369656e7420455552432062616c616e6365000000000000006044820152606401610dd5565b613ed86001600160a01b037f00000000000000000000000000000000000000000000000000000000000000001633836146cc565b604080518581526020810183905233917fac7121a88891072bc5eaff5494cbffd55ba1432cab5b6103fef7c99d1c12246b91016115c3565b613f18614402565b6001600160a01b038216613f625760405162461bcd60e51b8152602060048201526011602482015270125b9d985b1a59081c9958da5c1a595b9d607a1b6044820152606401610dd5565b6001600160a01b03831661405a57475f8215613f7e5782613f80565b815b905081811115613fa25760405162461bcd60e51b8152600401610dd590614d3c565b5f846001600160a01b0316826040515f6040518083038185875af1925050503d805f8114613feb576040519150601f19603f3d011682016040523d82523d5f602084013e613ff0565b606091505b50509050806140115760405162461bcd60e51b8152600401610dd590614cbe565b6040518281526001600160a01b038616905f907ff24ef89f38eadc1bde50701ad6e4d6d11a2dc24f7cf834a486991f3883328504906020015b60405180910390a3505050505050565b6040516370a0823160e01b815230600482015283905f906001600160a01b038316906370a0823190602401602060405180830381865afa1580156140a0573d5f803e3d5ffd5b505050506040513d601f19601f820116820180604052508101906140c49190614ce7565b90505f83156140d357836140d5565b815b9050818111156140f75760405162461bcd60e51b8152600401610dd590614d3c565b61410b6001600160a01b03841686836146cc565b846001600160a01b0316866001600160a01b03167ff24ef89f38eadc1bde50701ad6e4d6d11a2dc24f7cf834a486991f38833285048360405161404a91815260200190565b505050565b61415d614402565b6001600160a01b03811661418657604051631e4fbdf760e01b81525f6004820152602401610dd5565b61418f8161487e565b50565b5f61419b612cca565b9050601254811180156141af57505f601254115b15614291575f601254826141c39190614cab565b90505f612710601154836141d79190614c75565b6141e19190614c8c565b90505f6141ec611b9e565b90505f81614202670de0b6b3a764000085614c75565b61420c9190614c8c565b905080600f5f82825461421f9190614c62565b9091555050600b546001600160a01b03165f908152601060205260408120805483929061424d908490614c62565b909155505060128590556040518181527fbf6ebca9f5d1a2d62afc66487f23f5754c04b62dbc32724110d6454b833d6f4f9060200160405180910390a15050505050565b6012545f0361418f57601255565b6001600160a01b0382165f9081526008602052604081205482106142fe5760405162461bcd60e51b8152602060048201526016602482015275092dcecc2d8d2c840e0dee6d2e8d2dedc40d2dcc8caf60531b6044820152606401610dd5565b6001600160a01b0383165f90815260086020526040812080548490811061432757614327614d28565b5f918252602091829020604080516101008101825260079093029091018054835260018101549383019390935260028301546001600160a01b0381169183019190915260ff600160a01b9091048116606083015260038301546080830152600483015460a0830152600583015460c083015260069092015490911615801560e08301529091506143f95760405162461bcd60e51b815260206004820152601a60248201527f506f736974696f6e20616c72656164792077697468647261776e0000000000006044820152606401610dd5565b611fa5816146fd565b5f546001600160a01b031633146111785760405163118cdaa760e01b8152336004820152602401610dd5565b60025460ff16156111785760405163d93c066560e01b815260040160405180910390fd5b60026001540361447557604051633ee5aeb560e01b815260040160405180910390fd5b6002600155565b6040516001600160a01b0384811660248301528381166044830152606482018390526144e39186918216906323b872dd906084015b604051602081830303815290604052915060e01b6020820180516001600160e01b0383818316178352505050506149e6565b50505050565b6001600160a01b0384165f9081526006602052604081208054909103614524574280825560018201555f6002820181905560038201556145ae565b5f816001015411801561453a57505f8160020154115b156145ae575f620151808260010154426145549190614cab565b61455e9190614c8c565b905080156145ac575f612710600184600201548461457c9190614c75565b6145869190614c75565b6145909190614c8c565b905080836003015f8282546145a59190614c62565b9091555050505b505b5f6145b88661490a565b90505f80836001015411156145ec57620151808360010154426145db9190614cab565b6145e59190614c8c565b9050614611565b82541561461157825462015180906146049042614cab565b61460e9190614c8c565b90505b5f61271060016146218585614c75565b61462b9190614c75565b6146359190614c8c565b90505f612710614646600186614c75565b6146509190614c8c565b6002860185905542600187015560038601549091508190614672908490614c62565b61467c9190614c62565b600486018190556040519081526001600160a01b038a16907fa05f39e6d8d4e060324edb900f0f5909de621fd93f19ccf65ba74e5965c98c369060200160405180910390a2505050505050505050565b6040516001600160a01b0383811660248301526044820183905261415091859182169063a9059cbb906064016144b1565b5f8061018190507f00000000000000000000000000000000000000000000000000000000000000006001600160a01b031663f17cf9956040518163ffffffff1660e01b8152600401602060405180830381865afa92505050801561477e575060408051601f3d908101601f1916820190925261477b91810190614ce7565b60015b61478b5750610181614792565b6101819150505b5f836060015160ff166001036147aa575060416147d5565b836060015160ff166003036147c1575060876147d5565b836060015160ff16600c036147d557506101095b5f6147e08284614c62565b90505f8560c00151426147f39190614cab565b90505f64496cebb8008284896020015161480d9190614c75565b6148179190614c75565b6148219190614c8c565b979650505050505050565b614834614a52565b6002805460ff191690557f5db9ee0a495bf2e6ff9c91a7834c1ba4fdd244a5e8aa4e537bd38aeae4b073aa335b6040516001600160a01b03909116815260200160405180910390a1565b5f80546001600160a01b038381166001600160a01b0319831681178455604051919092169283917f8be0079c531659141344cd1fd0a4f28419497f9722a3daafe3b4186f6b6457e09190a35050565b6148d561442e565b6002805460ff191660011790557f62e78cea01bee320cd4e420270b5ea74000d11b0c9f74754ebdbfc544b05a2586148613390565b6001600160a01b0381165f9081526010602052604081205481901580159061493357505f600f54115b15614952575f61494284611f1e565b905061494e8183614c62565b9150505b6001600160a01b0383165f908152600560205260409020541580159061497957505f600454115b15611113575f614987613b55565b6001600160a01b0385165f9081526005602052604081205491925090670de0b6b3a7640000906149b8908490614c75565b6149c29190614c8c565b90506149d364e8d4a5100082614c8c565b6149dd9084614c62565b95945050505050565b5f8060205f8451602086015f885af180614a05576040513d5f823e3d81fd5b50505f513d91508115614a1c578060011415614a29565b6001600160a01b0384163b155b156144e357604051635274afe760e01b81526001600160a01b0385166004820152602401610dd5565b60025460ff1661117857604051638dfc202b60e01b815260040160405180910390fd5b80356001600160a01b03811681146115d7575f80fd5b5f60208284031215614a9b575f80fd5b614aa482614a75565b9392505050565b805182526020810151602083015260018060a01b03604082015116604083015260ff60608201511660608301526080810151608083015260a081015160a083015260c081015160c083015260e0810151151560e08301525050565b602080825282518282018190525f9190848201906040850190845b81811015614b4857614b34838551614aab565b928401926101009290920191600101614b21565b50909695505050505050565b5f60208284031215614b64575f80fd5b5035919050565b5f8060408385031215614b7c575f80fd5b82359150602083013560ff81168114614b93575f80fd5b809150509250929050565b801515811461418f575f80fd5b5f60208284031215614bbb575f80fd5b8135614aa481614b9e565b5f8060408385031215614bd7575f80fd5b614be083614a75565b946020939093013593505050565b61010081016111138284614aab565b5f805f60608486031215614c0f575f80fd5b614c1884614a75565b9250614c2660208501614a75565b9150604084013590509250925092565b634e487b7160e01b5f52601160045260245ffd5b5f60018201614c5b57614c5b614c36565b5060010190565b8082018082111561111357611113614c36565b808202811582820484141761111357611113614c36565b5f82614ca657634e487b7160e01b5f52601260045260245ffd5b500490565b8181038181111561111357611113614c36565b6020808252600f908201526e151c985b9cd9995c8819985a5b1959608a1b604082015260600190565b5f60208284031215614cf7575f80fd5b5051919050565b60208082526010908201526f24b73b30b634b2103837b9b4ba34b7b760811b604082015260600190565b634e487b7160e01b5f52603260045260245ffd5b602080825260149082015273496e73756666696369656e742062616c616e636560601b604082015260600190565b602080825260119082015270496e73756666696369656e74205553444360781b604082015260600190565b602080825260119082015270496e73756666696369656e74204555524360781b604082015260600190565b5f60208284031215614dd0575f80fd5b8151614aa481614b9e56fea2646970667358221220a2ab1f1846605a58106b60d390c5a838a9489efec25a9f7598b4d09242a3e8e364736f6c63430008180033",
  "linkReferences": {},
  "deployedLinkReferences": {},
  "immutableReferences": {
    "10351": [
      {
        "length": 32,
        "start": 1732
      },
      {
        "length": 32,
        "start": 5276
      },
      {
        "length": 32,
        "start": 5480
      },
      {
        "length": 32,
        "start": 6022
      },
      {
        "length": 32,
        "start": 6314
      },
      {
        "length": 32,
        "start": 6470
      },
      {
        "length": 32,
        "start": 8839
      },
      {
        "length": 32,
        "start": 8994
      },
      {
        "length": 32,
        "start": 9319
      },
      {
        "length": 32,
        "start": 9783
      },
      {
        "length": 32,
        "start": 10256
      },
      {
        "length": 32,
        "start": 10416
      },
      {
        "length": 32,
        "start": 10470
      },
      {
        "length": 32,
        "start": 12124
      },
      {
        "length": 32,
        "start": 12364
      },
      {
        "length": 32,
        "start": 12520
      },
      {
        "length": 32,
        "start": 14392
      }
    ],
    "10354": [
      {
        "length": 32,
        "start": 2795
      },
      {
        "length": 32,
        "start": 5030
      },
      {
        "length": 32,
        "start": 6064
      },
      {
        "length": 32,
        "start": 8642
      },
      {
        "length": 32,
        "start": 9210
      },
      {
        "length": 32,
        "start": 9851
      },
      {
        "length": 32,
        "start": 11647
      },
      {
        "length": 32,
        "start": 12166
      },
      {
        "length": 32,
        "start": 14195
      },
      {
        "length": 32,
        "start": 14435
      },
      {
        "length": 32,
        "start": 14623
      }
    ],
    "10358": [
      {
        "length": 32,
        "start": 1180
      },
      {
        "length": 32,
        "start": 3824
      },
      {
        "length": 32,
        "start": 3979
      },
      {
        "length": 32,
        "start": 4243
      },
      {
        "length": 32,
        "start": 6529
      },
      {
        "length": 32,
        "start": 6618
      },
      {
        "length": 32,
        "start": 6774
      },
      {
        "length": 32,
        "start": 10529
      },
      {
        "length": 32,
        "start": 10621
      },
      {
        "length": 32,
        "start": 10781
      },
      {
        "length": 32,
        "start": 10835
      },
      {
        "length": 32,
        "start": 11100
      },
      {
        "length": 32,
        "start": 12579
      },
      {
        "length": 32,
        "start": 12642
      },
      {
        "length": 32,
        "start": 12798
      },
      {
        "length": 32,
        "start": 15845
      },
      {
        "length": 32,
        "start": 16049
      }
    ],
    "10426": [
      {
        "length": 32,
        "start": 2867
      }
    ],
    "10430": [
      {
        "length": 32,
        "start": 1034
      }
    ],
    "10434": [
      {
        "length": 32,
        "start": 2694
      },
      {
        "length": 32,
        "start": 11476
      },
      {
        "length": 32,
        "start": 18182
      }
    ]
  },
  "inputSourceName": "project/contracts/TreasuryVault.sol",
  "buildInfoId": "solc-0_8_24-0821b47d5c5bde30567be796cb8648cfcedb6997"
}